{
  "contractName": "Staking",
  "abi": [
    {
      "inputs": [
        {
          "internalType": "contract MyToken",
          "name": "_mtk",
          "type": "address"
        }
      ],
      "stateMutability": "nonpayable",
      "type": "constructor"
    },
    {
      "inputs": [],
      "name": "mtk",
      "outputs": [
        {
          "internalType": "contract MyToken",
          "name": "",
          "type": "address"
        }
      ],
      "stateMutability": "view",
      "type": "function"
    },
    {
      "inputs": [],
      "name": "owner",
      "outputs": [
        {
          "internalType": "address",
          "name": "",
          "type": "address"
        }
      ],
      "stateMutability": "view",
      "type": "function"
    },
    {
      "inputs": [
        {
          "internalType": "address",
          "name": "",
          "type": "address"
        }
      ],
      "name": "stakingBalance",
      "outputs": [
        {
          "internalType": "uint256",
          "name": "",
          "type": "uint256"
        }
      ],
      "stateMutability": "view",
      "type": "function"
    },
    {
      "inputs": [
        {
          "internalType": "address",
          "name": "",
          "type": "address"
        }
      ],
      "name": "timeStamp",
      "outputs": [
        {
          "internalType": "uint256",
          "name": "",
          "type": "uint256"
        }
      ],
      "stateMutability": "view",
      "type": "function"
    },
    {
      "inputs": [
        {
          "internalType": "uint256",
          "name": "_amount",
          "type": "uint256"
        }
      ],
      "name": "stakeTokens",
      "outputs": [],
      "stateMutability": "nonpayable",
      "type": "function"
    },
    {
      "inputs": [],
      "name": "unstakeTokens",
      "outputs": [],
      "stateMutability": "nonpayable",
      "type": "function"
    },
    {
      "inputs": [],
      "name": "issueReward",
      "outputs": [],
      "stateMutability": "nonpayable",
      "type": "function"
    }
  ],
  "bytecode": "0x608060405234801561001057600080fd5b50604051610ae0380380610ae08339818101604052602081101561003357600080fd5b810190808051906020019092919050505080600160006101000a81548173ffffffffffffffffffffffffffffffffffffffff021916908373ffffffffffffffffffffffffffffffffffffffff160217905550336000806101000a81548173ffffffffffffffffffffffffffffffffffffffff021916908373ffffffffffffffffffffffffffffffffffffffff16021790555050610a0b806100d56000396000f3fe608060405234801561001057600080fd5b506004361061007d5760003560e01c80638da5cb5b1161005b5780638da5cb5b14610160578063a5ce413b14610194578063f44ba9901461019e578063f483f33b146101d25761007d565b8063351505041461008257806345bc78ab146100da5780637547c7a314610132575b600080fd5b6100c46004803603602081101561009857600080fd5b81019080803573ffffffffffffffffffffffffffffffffffffffff1690602001909291905050506101dc565b6040518082815260200191505060405180910390f35b61011c600480360360208110156100f057600080fd5b81019080803573ffffffffffffffffffffffffffffffffffffffff1690602001909291905050506101f4565b6040518082815260200191505060405180910390f35b61015e6004803603602081101561014857600080fd5b810190808035906020019092919050505061020c565b005b61016861043b565b604051808273ffffffffffffffffffffffffffffffffffffffff16815260200191505060405180910390f35b61019c61045f565b005b6101a6610675565b604051808273ffffffffffffffffffffffffffffffffffffffff16815260200191505060405180910390f35b6101da61069b565b005b60036020528060005260406000206000915090505481565b60026020528060005260406000206000915090505481565b60008111610282576040517f08c379a00000000000000000000000000000000000000000000000000000000081526004018080602001828103825260128152602001807f616d6f756e742063616e6e6f742062652030000000000000000000000000000081525060200191505060405180910390fd5b600160009054906101000a900473ffffffffffffffffffffffffffffffffffffffff1673ffffffffffffffffffffffffffffffffffffffff166323b872dd3330846040518463ffffffff1660e01b8152600401808473ffffffffffffffffffffffffffffffffffffffff1681526020018373ffffffffffffffffffffffffffffffffffffffff1681526020018281526020019350505050602060405180830381600087803b15801561033357600080fd5b505af1158015610347573d6000803e3d6000fd5b505050506040513d602081101561035d57600080fd5b81019080805190602001909291905050505080600260003373ffffffffffffffffffffffffffffffffffffffff1673ffffffffffffffffffffffffffffffffffffffff1681526020019081526020016000205401600260003373ffffffffffffffffffffffffffffffffffffffff1673ffffffffffffffffffffffffffffffffffffffff1681526020019081526020016000208190555042600360003373ffffffffffffffffffffffffffffffffffffffff1673ffffffffffffffffffffffffffffffffffffffff1681526020019081526020016000208190555050565b60008054906101000a900473ffffffffffffffffffffffffffffffffffffffff1681565b6000600260003373ffffffffffffffffffffffffffffffffffffffff1673ffffffffffffffffffffffffffffffffffffffff16815260200190815260200160002054905060008111610519576040517f08c379a000000000000000000000000000000000000000000000000000000000815260040180806020018281038252601b8152602001807f7374616b696e672062616c616e63652063616e6e6f742062652030000000000081525060200191505060405180910390fd5b600160009054906101000a900473ffffffffffffffffffffffffffffffffffffffff1673ffffffffffffffffffffffffffffffffffffffff1663a9059cbb33836040518363ffffffff1660e01b8152600401808373ffffffffffffffffffffffffffffffffffffffff16815260200182815260200192505050602060405180830381600087803b1580156105ac57600080fd5b505af11580156105c0573d6000803e3d6000fd5b505050506040513d60208110156105d657600080fd5b8101908080519060200190929190505050506000600260003373ffffffffffffffffffffffffffffffffffffffff1673ffffffffffffffffffffffffffffffffffffffff168152602001908152602001600020819055506000600360003373ffffffffffffffffffffffffffffffffffffffff1673ffffffffffffffffffffffffffffffffffffffff1681526020019081526020016000208190555050565b600160009054906101000a900473ffffffffffffffffffffffffffffffffffffffff1681565b60006106a63361081a565b90506000618ead826106b733610871565b600260003373ffffffffffffffffffffffffffffffffffffffff1673ffffffffffffffffffffffffffffffffffffffff1681526020019081526020016000205402028161070057fe5b04905042600360003373ffffffffffffffffffffffffffffffffffffffff1673ffffffffffffffffffffffffffffffffffffffff16815260200190815260200160002081905550600160009054906101000a900473ffffffffffffffffffffffffffffffffffffffff1673ffffffffffffffffffffffffffffffffffffffff1663a9059cbb33836040518363ffffffff1660e01b8152600401808373ffffffffffffffffffffffffffffffffffffffff16815260200182815260200192505050602060405180830381600087803b1580156107da57600080fd5b505af11580156107ee573d6000803e3d6000fd5b505050506040513d602081101561080457600080fd5b8101908080519060200190929190505050505050565b600062015180600360008473ffffffffffffffffffffffffffffffffffffffff1673ffffffffffffffffffffffffffffffffffffffff1681526020019081526020016000205442038161086957fe5b049050919050565b600080600061087f8461081a565b905062093a80600360008673ffffffffffffffffffffffffffffffffffffffff1673ffffffffffffffffffffffffffffffffffffffff168152602001908152602001600020540142116108ed576102bc81601902816108da57fe5b04600101915081600f02925050506109d0565b62127500600360008673ffffffffffffffffffffffffffffffffffffffff1673ffffffffffffffffffffffffffffffffffffffff1681526020019081526020016000205401421161095b57601c600782036002026023018161094b57fe5b04915081600f02925050506109d0565b621baf80600360008673ffffffffffffffffffffffffffffffffffffffff1673ffffffffffffffffffffffffffffffffffffffff168152602001908152602001600020540142116109c957601c600e8203600502603101816109b957fe5b04915081600f02925050506109d0565b602d925050505b91905056fea2646970667358221220fe2d4541c2475ee017af6e9694653d837709f98c1cad02fb1e0aeb2e379d30c064736f6c634300060c0033",
  "immutableReferences": {},
  "source": "// SPDX-License-Identifier: MIT\nimport \"./MyToken.sol\";\npragma solidity >=0.6.0 <0.8.0;\n\ncontract Staking {\n    address public owner;\n    MyToken public mtk;\n\n    mapping(address => uint256) public stakingBalance;\n    mapping(address => uint256) public timeStamp;\n\n    constructor(MyToken _mtk) public {\n        mtk = _mtk;\n        owner = msg.sender;\n    }\n\n    function stakeTokens(uint256 _amount) public {\n        // Require amount greater than 0\n        require(_amount > 0, \"amount cannot be 0\");\n\n        // Trasnfer MTK tokens to this contract for staking\n        mtk.transferFrom(msg.sender, address(this), _amount);\n\n        // Update staking balance\n        stakingBalance[msg.sender] = stakingBalance[msg.sender] + _amount;\n\n        // Update staking status\n        timeStamp[msg.sender] = block.timestamp;\n    }\n\n    function unstakeTokens() public {\n        // Fetch staking balance\n        uint256 balance = stakingBalance[msg.sender];\n\n        // Require amount greater than 0\n        require(balance > 0, \"staking balance cannot be 0\");\n\n        // Transfer Mock Dai tokens to this contract for staking\n        mtk.transfer(msg.sender, balance);\n\n        // Reset staking balance\n        stakingBalance[msg.sender] = 0;\n\n        timeStamp[msg.sender] = 0;\n    }\n\n    function issueReward() public {\n        uint256 t = interval(msg.sender);\n        uint256 reward =\n            (stakingBalance[msg.sender] * rewardHelper(msg.sender) * t) / 36525;\n        timeStamp[msg.sender] = block.timestamp;\n        mtk.transfer(msg.sender, reward);\n    }\n\n    function rewardHelper(address user) internal view returns (uint256) {\n        uint256 temp;\n        uint256 t = interval(user);\n\n        if (block.timestamp <= timeStamp[user] + 604800) {\n            temp = 1 + ((25 * t) / 700);\n            return 15 * temp;\n        }\n\n        if (block.timestamp <= timeStamp[user] + 1209600) {\n            temp = (35 + (2 * (t - 7))) / 28;\n            return 15 * temp;\n        }\n\n        if (block.timestamp <= timeStamp[user] + 1814400) {\n            temp = (49 + (5 * (t - 14))) / 28;\n            return 15 * temp;\n        }\n\n        return 45;\n    }\n\n    function interval(address user) internal view returns (uint256) {\n        return (block.timestamp - timeStamp[user]) / 86400;\n    }\n}\n",
  "sourcePath": "/home/sourav/Documents/Programming/SoluLab Tasks/Token_Truffle/src/contracts/Staking.sol",
  "compiler": {
    "name": "solc",
    "version": "0.6.12+commit.27d51765.Emscripten.clang"
  },
  "schemaVersion": "3.3.4",
  "updatedAt": "2021-03-30T10:22:53.448Z",
  "devdoc": {
    "kind": "dev",
    "methods": {},
    "version": 1
  },
  "userdoc": {
    "kind": "user",
    "methods": {},
    "version": 1
  }
}